:020000040800F2
:100000000004002005010008290100082B01000858
:100010002D0100082F010008310100080000000038
:100020000000000000000000000000003301000894
:100030003501000800000000370100083901000800
:100040003B0100083B0100083B0100083B010008A0
:100050003B0100083B0100083B0100083B01000890
:100060003B0100083B0100083B0100083B01000880
:100070003B0100083B0100083B0100083B01000870
:100080003B0100083B0100083B0100083B01000860
:100090003B0100083B0100083B0100083B01000850
:1000A0003B0100083B0100083B0100083B01000840
:1000B0003B0100083B0100083B0100083B01000830
:1000C0003B0100083B0100083B0100083B01000820
:1000D0003B0100083B0100083B0100083B01000810
:1000E0003B0100083B0100083B010008DFF810D08D
:1000F00000F040F800480047A1020008AFF300807C
:10010000000400200D488047DFF83400016841F406
:10011000E0210160BFF34F8FDFF82800DFF82810DF
:1001200001600A4800477047FEE7FEE7FEE7FEE78A
:10013000FEE7FEE7FEE7FEE7FEE7FEE72701000831
:1001400024ED00E00CED00E00003FA05ED000008EE
:10015000D2B201E000F8012B491EFBD27047002209
:10016000F6E710B513460A4604461946FFF7F0FFB6
:10017000204610BD064C074D06E0E06840F0010344
:1001800094E8070098471034AC42F6D3FFF7B2FF6B
:10019000240300083403000870B5194C8320206044
:1001A00000256560A56017486060012000F02EF80A
:1001B00061680843606014490D60086840F00200FF
:1001C0000860206840F48030206020688003FCD5FF
:1001D000206840F08070206020688001FCD5606855
:1001E00020F003006060606840F0020060606068BA
:1001F00040F480006060086840F01000086070BD46
:100200000010024000841D0000200240012804D09C
:10021000B0F5807F03DD012102E000202CE0002109
:10022000802801DD012200E000220A44402801DD8F
:10023000012100E000210A44102801DD012100E035
:1002400000210A44082801DD012100E000210A44C0
:10025000042801DD012100E000210A44022801DD1B
:10026000012100E000211144012801DD012000E00E
:1002700000200844C01D0001702800D100207047F4
:1002800002E008C8121F08C1002AFAD1704770475F
:10029000002001E001C1121F002AFBD170470000BD
:1002A000C0B0FFF779FF4FF480716846FFF757FF42
:1002B000002406E0E1B2054800F00AF84DF82400F9
:1002C000641C3F2CF6DB00BFFEE70000340300088F
:1002D000F0B50F46114A00F00BF80B46104A00F03B
:1002E00007F883FB0340C1FB0140BDE8F0407047C5
:1002F0004FF000014FF000044FF0000807FB04F836
:1003000008F03F0830F9145032F9186005FB06F583
:10031000294404F10104402CF0DB7047B4030008C9
:1003200034040008B40400080000002000040000A9
:1003300090020008FF0FF60FD90FA80F640F0E0FE1
:10034000A70E2F0EA80D130D720CC50B100B530A20
:100350009009C908000837077006AD05F0043B0492
:100360008E03ED025802D1015901F2009C005800A1
:1003700027000A0000000A00270058009C00F20035
:100380005901D1015802ED028E033B04F004AD0582
:10039000700637070008C9089009530A100BC50BEF
:1003A000720C130DA80D2F0EA70E0E0F640FA80FC1
:1003B000D90FF60FFF7F627F8A7D7D7A4276E370E8
:1003C0006E6AF262825A34511D47573CFC30282530
:1003D000F9188C0C000074F307E7D8DA04CFA9C32E
:1003E000E3B8CCAE7EA50E9D92951D8FBE89838508
:1003F00076829E8000809E8076828385BE891D8F56
:1004000092950E9D7EA5CCAEE3B8A9C304CFD8DAF1
:1004100007E774F300008C0CF9182825FC30573CD2
:100420001D473451825AF2626E6AE37042767D7AD9
:100430008A7D627F00008C0CF9182825FC30573C1F
:100440001D473451825AF2626E6AE37042767D7AB9
:100450008A7D627FFF7F627F8A7D7D7A4276E3704C
:100460006E6AF262825A34511D47573CFC3028258F
:10047000F9188C0C000074F307E7D8DA04CFA9C38D
:10048000E3B8CCAE7EA50E9D92951D8FBE89838567
:1004900076829E8000809E8076828385BE891D8FB5
:1004A00092950E9D7EA5CCAEE3B8A9C304CFD8DA51
:0404B00007E774F3F3
:04000005080000ED02
:00000001FF
